{
  "contractName": "NFT",
  "abi": [
    {
      "inputs": [
        {
          "internalType": "address payable",
          "name": "_beneficiary",
          "type": "address"
        }
      ],
      "stateMutability": "nonpayable",
      "type": "constructor"
    },
    {
      "anonymous": false,
      "inputs": [
        {
          "indexed": true,
          "internalType": "address",
          "name": "owner",
          "type": "address"
        },
        {
          "indexed": true,
          "internalType": "address",
          "name": "approved",
          "type": "address"
        },
        {
          "indexed": true,
          "internalType": "uint256",
          "name": "tokenId",
          "type": "uint256"
        }
      ],
      "name": "Approval",
      "type": "event"
    },
    {
      "anonymous": false,
      "inputs": [
        {
          "indexed": true,
          "internalType": "address",
          "name": "owner",
          "type": "address"
        },
        {
          "indexed": true,
          "internalType": "address",
          "name": "operator",
          "type": "address"
        },
        {
          "indexed": false,
          "internalType": "bool",
          "name": "approved",
          "type": "bool"
        }
      ],
      "name": "ApprovalForAll",
      "type": "event"
    },
    {
      "anonymous": false,
      "inputs": [
        {
          "indexed": true,
          "internalType": "address",
          "name": "from",
          "type": "address"
        },
        {
          "indexed": true,
          "internalType": "address",
          "name": "to",
          "type": "address"
        },
        {
          "indexed": true,
          "internalType": "uint256",
          "name": "tokenId",
          "type": "uint256"
        }
      ],
      "name": "Transfer",
      "type": "event"
    },
    {
      "inputs": [
        {
          "internalType": "address",
          "name": "to",
          "type": "address"
        },
        {
          "internalType": "uint256",
          "name": "tokenId",
          "type": "uint256"
        }
      ],
      "name": "approve",
      "outputs": [],
      "stateMutability": "nonpayable",
      "type": "function"
    },
    {
      "inputs": [
        {
          "internalType": "address",
          "name": "owner",
          "type": "address"
        }
      ],
      "name": "balanceOf",
      "outputs": [
        {
          "internalType": "uint256",
          "name": "",
          "type": "uint256"
        }
      ],
      "stateMutability": "view",
      "type": "function",
      "constant": true
    },
    {
      "inputs": [],
      "name": "beneficiary",
      "outputs": [
        {
          "internalType": "address payable",
          "name": "",
          "type": "address"
        }
      ],
      "stateMutability": "view",
      "type": "function",
      "constant": true
    },
    {
      "inputs": [
        {
          "internalType": "uint256",
          "name": "tokenId",
          "type": "uint256"
        }
      ],
      "name": "getApproved",
      "outputs": [
        {
          "internalType": "address",
          "name": "",
          "type": "address"
        }
      ],
      "stateMutability": "view",
      "type": "function",
      "constant": true
    },
    {
      "inputs": [
        {
          "internalType": "address",
          "name": "owner",
          "type": "address"
        },
        {
          "internalType": "address",
          "name": "operator",
          "type": "address"
        }
      ],
      "name": "isApprovedForAll",
      "outputs": [
        {
          "internalType": "bool",
          "name": "",
          "type": "bool"
        }
      ],
      "stateMutability": "view",
      "type": "function",
      "constant": true
    },
    {
      "inputs": [],
      "name": "name",
      "outputs": [
        {
          "internalType": "string",
          "name": "",
          "type": "string"
        }
      ],
      "stateMutability": "view",
      "type": "function",
      "constant": true
    },
    {
      "inputs": [
        {
          "internalType": "uint256",
          "name": "tokenId",
          "type": "uint256"
        }
      ],
      "name": "ownerOf",
      "outputs": [
        {
          "internalType": "address",
          "name": "",
          "type": "address"
        }
      ],
      "stateMutability": "view",
      "type": "function",
      "constant": true
    },
    {
      "inputs": [
        {
          "internalType": "address",
          "name": "from",
          "type": "address"
        },
        {
          "internalType": "address",
          "name": "to",
          "type": "address"
        },
        {
          "internalType": "uint256",
          "name": "tokenId",
          "type": "uint256"
        }
      ],
      "name": "safeTransferFrom",
      "outputs": [],
      "stateMutability": "nonpayable",
      "type": "function"
    },
    {
      "inputs": [
        {
          "internalType": "address",
          "name": "from",
          "type": "address"
        },
        {
          "internalType": "address",
          "name": "to",
          "type": "address"
        },
        {
          "internalType": "uint256",
          "name": "tokenId",
          "type": "uint256"
        },
        {
          "internalType": "bytes",
          "name": "_data",
          "type": "bytes"
        }
      ],
      "name": "safeTransferFrom",
      "outputs": [],
      "stateMutability": "nonpayable",
      "type": "function"
    },
    {
      "inputs": [
        {
          "internalType": "address",
          "name": "operator",
          "type": "address"
        },
        {
          "internalType": "bool",
          "name": "approved",
          "type": "bool"
        }
      ],
      "name": "setApprovalForAll",
      "outputs": [],
      "stateMutability": "nonpayable",
      "type": "function"
    },
    {
      "inputs": [
        {
          "internalType": "bytes4",
          "name": "interfaceId",
          "type": "bytes4"
        }
      ],
      "name": "supportsInterface",
      "outputs": [
        {
          "internalType": "bool",
          "name": "",
          "type": "bool"
        }
      ],
      "stateMutability": "view",
      "type": "function",
      "constant": true
    },
    {
      "inputs": [],
      "name": "symbol",
      "outputs": [
        {
          "internalType": "string",
          "name": "",
          "type": "string"
        }
      ],
      "stateMutability": "view",
      "type": "function",
      "constant": true
    },
    {
      "inputs": [
        {
          "internalType": "uint256",
          "name": "tokenId",
          "type": "uint256"
        }
      ],
      "name": "tokenURI",
      "outputs": [
        {
          "internalType": "string",
          "name": "",
          "type": "string"
        }
      ],
      "stateMutability": "view",
      "type": "function",
      "constant": true
    },
    {
      "inputs": [
        {
          "internalType": "address",
          "name": "from",
          "type": "address"
        },
        {
          "internalType": "address",
          "name": "to",
          "type": "address"
        },
        {
          "internalType": "uint256",
          "name": "tokenId",
          "type": "uint256"
        }
      ],
      "name": "transferFrom",
      "outputs": [],
      "stateMutability": "nonpayable",
      "type": "function"
    },
    {
      "inputs": [
        {
          "internalType": "string",
          "name": "_value",
          "type": "string"
        }
      ],
      "name": "mint",
      "outputs": [],
      "stateMutability": "payable",
      "type": "function",
      "payable": true
    },
    {
      "inputs": [
        {
          "internalType": "address",
          "name": "_owner",
          "type": "address"
        }
      ],
      "name": "getUserTokens",
      "outputs": [
        {
          "internalType": "uint256[]",
          "name": "",
          "type": "uint256[]"
        }
      ],
      "stateMutability": "view",
      "type": "function",
      "constant": true
    },
    {
      "inputs": [],
      "name": "getCountTokens",
      "outputs": [
        {
          "internalType": "uint256",
          "name": "",
          "type": "uint256"
        }
      ],
      "stateMutability": "view",
      "type": "function",
      "constant": true
    }
  ],
  "bytecode": "0x6080604052620f4240600860146101000a81548163ffffffff021916908363ffffffff1602179055503480156200003557600080fd5b506040516200362a3803806200362a83398181016040528101906200005b91906200025d565b6040518060400160405280600781526020017f4d79546f6b656e000000000000000000000000000000000000000000000000008152506040518060400160405280600381526020017f4d544b00000000000000000000000000000000000000000000000000000000008152508160009080519060200190620000df92919062000143565b508060019080519060200190620000f892919062000143565b50505080600860006101000a81548173ffffffffffffffffffffffffffffffffffffffff021916908373ffffffffffffffffffffffffffffffffffffffff16021790555050620002f3565b8280546200015190620002be565b90600052602060002090601f016020900481019282620001755760008555620001c1565b82601f106200019057805160ff1916838001178555620001c1565b82800160010185558215620001c1579182015b82811115620001c0578251825591602001919060010190620001a3565b5b509050620001d09190620001d4565b5090565b5b80821115620001ef576000816000905550600101620001d5565b5090565b600080fd5b600073ffffffffffffffffffffffffffffffffffffffff82169050919050565b60006200022582620001f8565b9050919050565b620002378162000218565b81146200024357600080fd5b50565b60008151905062000257816200022c565b92915050565b600060208284031215620002765762000275620001f3565b5b6000620002868482850162000246565b91505092915050565b7f4e487b7100000000000000000000000000000000000000000000000000000000600052602260045260246000fd5b60006002820490506001821680620002d757607f821691505b602082108103620002ed57620002ec6200028f565b5b50919050565b61332780620003036000396000f3fe6080604052600436106100fe5760003560e01c80636352211e11610095578063a22cb46511610064578063a22cb4651461035b578063b88d4fde14610384578063c87b56dd146103ad578063d85d3d27146103ea578063e985e9c514610406576100fe565b80636352211e1461028b57806370a08231146102c857806395d89b411461030557806398d5547d14610330576100fe565b806323b872dd116100d157806323b872dd146101d157806338af3eed146101fa57806342842e0e14610225578063519dc8d21461024e576100fe565b806301ffc9a71461010357806306fdde0314610140578063081812fc1461016b578063095ea7b3146101a8575b600080fd5b34801561010f57600080fd5b5061012a60048036038101906101259190611d9d565b610443565b6040516101379190611de5565b60405180910390f35b34801561014c57600080fd5b50610155610525565b6040516101629190611e99565b60405180910390f35b34801561017757600080fd5b50610192600480360381019061018d9190611ef1565b6105b7565b60405161019f9190611f5f565b60405180910390f35b3480156101b457600080fd5b506101cf60048036038101906101ca9190611fa6565b61063c565b005b3480156101dd57600080fd5b506101f860048036038101906101f39190611fe6565b610753565b005b34801561020657600080fd5b5061020f6107b3565b60405161021c919061205a565b60405180910390f35b34801561023157600080fd5b5061024c60048036038101906102479190611fe6565b6107d9565b005b34801561025a57600080fd5b5061027560048036038101906102709190612075565b6107f9565b6040516102829190612160565b60405180910390f35b34801561029757600080fd5b506102b260048036038101906102ad9190611ef1565b610890565b6040516102bf9190611f5f565b60405180910390f35b3480156102d457600080fd5b506102ef60048036038101906102ea9190612075565b610941565b6040516102fc9190612191565b60405180910390f35b34801561031157600080fd5b5061031a6109f8565b6040516103279190611e99565b60405180910390f35b34801561033c57600080fd5b50610345610a8a565b6040516103529190612191565b60405180910390f35b34801561036757600080fd5b50610382600480360381019061037d91906121d8565b610aaa565b005b34801561039057600080fd5b506103ab60048036038101906103a6919061234d565b610ac0565b005b3480156103b957600080fd5b506103d460048036038101906103cf9190611ef1565b610b22565b6040516103e19190611e99565b60405180910390f35b61040460048036038101906103ff9190612471565b610c73565b005b34801561041257600080fd5b5061042d600480360381019061042891906124ba565b610f14565b60405161043a9190611de5565b60405180910390f35b60007f80ac58cd000000000000000000000000000000000000000000000000000000007bffffffffffffffffffffffffffffffffffffffffffffffffffffffff1916827bffffffffffffffffffffffffffffffffffffffffffffffffffffffff1916148061050e57507f5b5e139f000000000000000000000000000000000000000000000000000000007bffffffffffffffffffffffffffffffffffffffffffffffffffffffff1916827bffffffffffffffffffffffffffffffffffffffffffffffffffffffff1916145b8061051e575061051d82610fa8565b5b9050919050565b60606000805461053490612529565b80601f016020809104026020016040519081016040528092919081815260200182805461056090612529565b80156105ad5780601f10610582576101008083540402835291602001916105ad565b820191906000526020600020905b81548152906001019060200180831161059057829003601f168201915b5050505050905090565b60006105c282611012565b610601576040517f08c379a00000000000000000000000000000000000000000000000000000000081526004016105f8906125cc565b60405180910390fd5b6004600083815260200190815260200160002060009054906101000a900473ffffffffffffffffffffffffffffffffffffffff169050919050565b600061064782610890565b90508073ffffffffffffffffffffffffffffffffffffffff168373ffffffffffffffffffffffffffffffffffffffff16036106b7576040517f08c379a00000000000000000000000000000000000000000000000000000000081526004016106ae9061265e565b60405180910390fd5b8073ffffffffffffffffffffffffffffffffffffffff166106d661107e565b73ffffffffffffffffffffffffffffffffffffffff1614806107055750610704816106ff61107e565b610f14565b5b610744576040517f08c379a000000000000000000000000000000000000000000000000000000000815260040161073b906126f0565b60405180910390fd5b61074e8383611086565b505050565b61076461075e61107e565b8261113f565b6107a3576040517f08c379a000000000000000000000000000000000000000000000000000000000815260040161079a90612782565b60405180910390fd5b6107ae83838361121d565b505050565b600860009054906101000a900473ffffffffffffffffffffffffffffffffffffffff1681565b6107f483838360405180602001604052806000815250610ac0565b505050565b6060600960008373ffffffffffffffffffffffffffffffffffffffff1673ffffffffffffffffffffffffffffffffffffffff16815260200190815260200160002080548060200260200160405190810160405280929190818152602001828054801561088457602002820191906000526020600020905b815481526020019060010190808311610870575b50505050509050919050565b6000806002600084815260200190815260200160002060009054906101000a900473ffffffffffffffffffffffffffffffffffffffff169050600073ffffffffffffffffffffffffffffffffffffffff168173ffffffffffffffffffffffffffffffffffffffff1603610938576040517f08c379a000000000000000000000000000000000000000000000000000000000815260040161092f90612814565b60405180910390fd5b80915050919050565b60008073ffffffffffffffffffffffffffffffffffffffff168273ffffffffffffffffffffffffffffffffffffffff16036109b1576040517f08c379a00000000000000000000000000000000000000000000000000000000081526004016109a8906128a6565b60405180910390fd5b600360008373ffffffffffffffffffffffffffffffffffffffff1673ffffffffffffffffffffffffffffffffffffffff168152602001908152602001600020549050919050565b606060018054610a0790612529565b80601f0160208091040260200160405190810160405280929190818152602001828054610a3390612529565b8015610a805780601f10610a5557610100808354040283529160200191610a80565b820191906000526020600020905b815481529060010190602001808311610a6357829003601f168201915b5050505050905090565b6000600860149054906101000a900463ffffffff1663ffffffff16905090565b610abc610ab561107e565b8383611483565b5050565b610ad1610acb61107e565b8361113f565b610b10576040517f08c379a0000000000000000000000000000000000000000000000000000000008152600401610b0790612782565b60405180910390fd5b610b1c848484846115ef565b50505050565b6060610b2d82611012565b610b6c576040517f08c379a0000000000000000000000000000000000000000000000000000000008152600401610b6390612938565b60405180910390fd5b6000600660008481526020019081526020016000208054610b8c90612529565b80601f0160208091040260200160405190810160405280929190818152602001828054610bb890612529565b8015610c055780601f10610bda57610100808354040283529160200191610c05565b820191906000526020600020905b815481529060010190602001808311610be857829003601f168201915b505050505090506000610c1661164b565b90506000815103610c2b578192505050610c6e565b600082511115610c60578082604051602001610c48929190612994565b60405160208183030381529060405292505050610c6e565b610c6984611662565b925050505b919050565b600066038d7ea4c680009050803414610c8b82611709565b610c9434611709565b604051602001610ca5929190612a50565b60405160208183030381529060405290610cf5576040517f08c379a0000000000000000000000000000000000000000000000000000000008152600401610cec9190611e99565b60405180910390fd5b506000600860149054906101000a900463ffffffff1663ffffffff1611610d51576040517f08c379a0000000000000000000000000000000000000000000000000000000008152600401610d4890612ad6565b60405180910390fd5b6000606490508060ff16610d6433610941565b10610d718260ff16611709565b604051602001610d819190612b42565b60405160208183030381529060405290610dd1576040517f08c379a0000000000000000000000000000000000000000000000000000000008152600401610dc89190611e99565b60405180910390fd5b50600860009054906101000a900473ffffffffffffffffffffffffffffffffffffffff1673ffffffffffffffffffffffffffffffffffffffff166108fc839081150290604051600060405180830381858888f19350505050158015610e3a573d6000803e3d6000fd5b506008601481819054906101000a900463ffffffff1680929190610e5d90612ba3565b91906101000a81548163ffffffff021916908363ffffffff16021790555050610e866007611869565b6000610e92600761187f565b9050610e9e338261188d565b600960003373ffffffffffffffffffffffffffffffffffffffff1673ffffffffffffffffffffffffffffffffffffffff168152602001908152602001600020819080600181540180825580915050600190039060005260206000200160009091909190915055610f0e8185611a66565b50505050565b6000600560008473ffffffffffffffffffffffffffffffffffffffff1673ffffffffffffffffffffffffffffffffffffffff16815260200190815260200160002060008373ffffffffffffffffffffffffffffffffffffffff1673ffffffffffffffffffffffffffffffffffffffff16815260200190815260200160002060009054906101000a900460ff16905092915050565b60007f01ffc9a7000000000000000000000000000000000000000000000000000000007bffffffffffffffffffffffffffffffffffffffffffffffffffffffff1916827bffffffffffffffffffffffffffffffffffffffffffffffffffffffff1916149050919050565b60008073ffffffffffffffffffffffffffffffffffffffff166002600084815260200190815260200160002060009054906101000a900473ffffffffffffffffffffffffffffffffffffffff1673ffffffffffffffffffffffffffffffffffffffff1614159050919050565b600033905090565b816004600083815260200190815260200160002060006101000a81548173ffffffffffffffffffffffffffffffffffffffff021916908373ffffffffffffffffffffffffffffffffffffffff160217905550808273ffffffffffffffffffffffffffffffffffffffff166110f983610890565b73ffffffffffffffffffffffffffffffffffffffff167f8c5be1e5ebec7d5bd14f71427d1e84f3dd0314c0f7b2291e5b200ac8c7c3b92560405160405180910390a45050565b600061114a82611012565b611189576040517f08c379a000000000000000000000000000000000000000000000000000000000815260040161118090612c3e565b60405180910390fd5b600061119483610890565b90508073ffffffffffffffffffffffffffffffffffffffff168473ffffffffffffffffffffffffffffffffffffffff16148061120357508373ffffffffffffffffffffffffffffffffffffffff166111eb846105b7565b73ffffffffffffffffffffffffffffffffffffffff16145b8061121457506112138185610f14565b5b91505092915050565b8273ffffffffffffffffffffffffffffffffffffffff1661123d82610890565b73ffffffffffffffffffffffffffffffffffffffff1614611293576040517f08c379a000000000000000000000000000000000000000000000000000000000815260040161128a90612cd0565b60405180910390fd5b600073ffffffffffffffffffffffffffffffffffffffff168273ffffffffffffffffffffffffffffffffffffffff1603611302576040517f08c379a00000000000000000000000000000000000000000000000000000000081526004016112f990612d62565b60405180910390fd5b61130d838383611ada565b611318600082611086565b6001600360008573ffffffffffffffffffffffffffffffffffffffff1673ffffffffffffffffffffffffffffffffffffffff16815260200190815260200160002060008282546113689190612d82565b925050819055506001600360008473ffffffffffffffffffffffffffffffffffffffff1673ffffffffffffffffffffffffffffffffffffffff16815260200190815260200160002060008282546113bf9190612db6565b92505081905550816002600083815260200190815260200160002060006101000a81548173ffffffffffffffffffffffffffffffffffffffff021916908373ffffffffffffffffffffffffffffffffffffffff160217905550808273ffffffffffffffffffffffffffffffffffffffff168473ffffffffffffffffffffffffffffffffffffffff167fddf252ad1be2c89b69c2b068fc378daa952ba7f163c4a11628f55a4df523b3ef60405160405180910390a461147e838383611adf565b505050565b8173ffffffffffffffffffffffffffffffffffffffff168373ffffffffffffffffffffffffffffffffffffffff16036114f1576040517f08c379a00000000000000000000000000000000000000000000000000000000081526004016114e890612e58565b60405180910390fd5b80600560008573ffffffffffffffffffffffffffffffffffffffff1673ffffffffffffffffffffffffffffffffffffffff16815260200190815260200160002060008473ffffffffffffffffffffffffffffffffffffffff1673ffffffffffffffffffffffffffffffffffffffff16815260200190815260200160002060006101000a81548160ff0219169083151502179055508173ffffffffffffffffffffffffffffffffffffffff168373ffffffffffffffffffffffffffffffffffffffff167f17307eab39ab6107e8899845ad3d59bd9653f200f220920489ca2b5937696c31836040516115e29190611de5565b60405180910390a3505050565b6115fa84848461121d565b61160684848484611ae4565b611645576040517f08c379a000000000000000000000000000000000000000000000000000000000815260040161163c90612eea565b60405180910390fd5b50505050565b606060405180602001604052806000815250905090565b606061166d82611012565b6116ac576040517f08c379a00000000000000000000000000000000000000000000000000000000081526004016116a390612f7c565b60405180910390fd5b60006116b661164b565b905060008151116116d65760405180602001604052806000815250611701565b806116e084611709565b6040516020016116f1929190612994565b6040516020818303038152906040525b915050919050565b606060008203611750576040518060400160405280600181526020017f30000000000000000000000000000000000000000000000000000000000000008152509050611864565b600082905060005b6000821461178257808061176b90612f9c565b915050600a8261177b9190613013565b9150611758565b60008167ffffffffffffffff81111561179e5761179d612222565b5b6040519080825280601f01601f1916602001820160405280156117d05781602001600182028036833780820191505090505b5090505b6000851461185d576001826117e99190612d82565b9150600a856117f89190613044565b60306118049190612db6565b60f81b81838151811061181a57611819613075565b5b60200101907effffffffffffffffffffffffffffffffffffffffffffffffffffffffffffff1916908160001a905350600a856118569190613013565b94506117d4565b8093505050505b919050565b6001816000016000828254019250508190555050565b600081600001549050919050565b600073ffffffffffffffffffffffffffffffffffffffff168273ffffffffffffffffffffffffffffffffffffffff16036118fc576040517f08c379a00000000000000000000000000000000000000000000000000000000081526004016118f3906130f0565b60405180910390fd5b61190581611012565b15611945576040517f08c379a000000000000000000000000000000000000000000000000000000000815260040161193c9061315c565b60405180910390fd5b61195160008383611ada565b6001600360008473ffffffffffffffffffffffffffffffffffffffff1673ffffffffffffffffffffffffffffffffffffffff16815260200190815260200160002060008282546119a19190612db6565b92505081905550816002600083815260200190815260200160002060006101000a81548173ffffffffffffffffffffffffffffffffffffffff021916908373ffffffffffffffffffffffffffffffffffffffff160217905550808273ffffffffffffffffffffffffffffffffffffffff16600073ffffffffffffffffffffffffffffffffffffffff167fddf252ad1be2c89b69c2b068fc378daa952ba7f163c4a11628f55a4df523b3ef60405160405180910390a4611a6260008383611adf565b5050565b611a6f82611012565b611aae576040517f08c379a0000000000000000000000000000000000000000000000000000000008152600401611aa5906131ee565b60405180910390fd5b80600660008481526020019081526020016000209080519060200190611ad5929190611c8e565b505050565b505050565b505050565b6000611b058473ffffffffffffffffffffffffffffffffffffffff16611c6b565b15611c5e578373ffffffffffffffffffffffffffffffffffffffff1663150b7a02611b2e61107e565b8786866040518563ffffffff1660e01b8152600401611b509493929190613263565b6020604051808303816000875af1925050508015611b8c57506040513d601f19601f82011682018060405250810190611b8991906132c4565b60015b611c0e573d8060008114611bbc576040519150601f19603f3d011682016040523d82523d6000602084013e611bc1565b606091505b506000815103611c06576040517f08c379a0000000000000000000000000000000000000000000000000000000008152600401611bfd90612eea565b60405180910390fd5b805181602001fd5b63150b7a0260e01b7bffffffffffffffffffffffffffffffffffffffffffffffffffffffff1916817bffffffffffffffffffffffffffffffffffffffffffffffffffffffff191614915050611c63565b600190505b949350505050565b6000808273ffffffffffffffffffffffffffffffffffffffff163b119050919050565b828054611c9a90612529565b90600052602060002090601f016020900481019282611cbc5760008555611d03565b82601f10611cd557805160ff1916838001178555611d03565b82800160010185558215611d03579182015b82811115611d02578251825591602001919060010190611ce7565b5b509050611d109190611d14565b5090565b5b80821115611d2d576000816000905550600101611d15565b5090565b6000604051905090565b600080fd5b600080fd5b60007fffffffff0000000000000000000000000000000000000000000000000000000082169050919050565b611d7a81611d45565b8114611d8557600080fd5b50565b600081359050611d9781611d71565b92915050565b600060208284031215611db357611db2611d3b565b5b6000611dc184828501611d88565b91505092915050565b60008115159050919050565b611ddf81611dca565b82525050565b6000602082019050611dfa6000830184611dd6565b92915050565b600081519050919050565b600082825260208201905092915050565b60005b83811015611e3a578082015181840152602081019050611e1f565b83811115611e49576000848401525b50505050565b6000601f19601f8301169050919050565b6000611e6b82611e00565b611e758185611e0b565b9350611e85818560208601611e1c565b611e8e81611e4f565b840191505092915050565b60006020820190508181036000830152611eb38184611e60565b905092915050565b6000819050919050565b611ece81611ebb565b8114611ed957600080fd5b50565b600081359050611eeb81611ec5565b92915050565b600060208284031215611f0757611f06611d3b565b5b6000611f1584828501611edc565b91505092915050565b600073ffffffffffffffffffffffffffffffffffffffff82169050919050565b6000611f4982611f1e565b9050919050565b611f5981611f3e565b82525050565b6000602082019050611f746000830184611f50565b92915050565b611f8381611f3e565b8114611f8e57600080fd5b50565b600081359050611fa081611f7a565b92915050565b60008060408385031215611fbd57611fbc611d3b565b5b6000611fcb85828601611f91565b9250506020611fdc85828601611edc565b9150509250929050565b600080600060608486031215611fff57611ffe611d3b565b5b600061200d86828701611f91565b935050602061201e86828701611f91565b925050604061202f86828701611edc565b9150509250925092565b600061204482611f1e565b9050919050565b61205481612039565b82525050565b600060208201905061206f600083018461204b565b92915050565b60006020828403121561208b5761208a611d3b565b5b600061209984828501611f91565b91505092915050565b600081519050919050565b600082825260208201905092915050565b6000819050602082019050919050565b6120d781611ebb565b82525050565b60006120e983836120ce565b60208301905092915050565b6000602082019050919050565b600061210d826120a2565b61211781856120ad565b9350612122836120be565b8060005b8381101561215357815161213a88826120dd565b9750612145836120f5565b925050600181019050612126565b5085935050505092915050565b6000602082019050818103600083015261217a8184612102565b905092915050565b61218b81611ebb565b82525050565b60006020820190506121a66000830184612182565b92915050565b6121b581611dca565b81146121c057600080fd5b50565b6000813590506121d2816121ac565b92915050565b600080604083850312156121ef576121ee611d3b565b5b60006121fd85828601611f91565b925050602061220e858286016121c3565b9150509250929050565b600080fd5b600080fd5b7f4e487b7100000000000000000000000000000000000000000000000000000000600052604160045260246000fd5b61225a82611e4f565b810181811067ffffffffffffffff8211171561227957612278612222565b5b80604052505050565b600061228c611d31565b90506122988282612251565b919050565b600067ffffffffffffffff8211156122b8576122b7612222565b5b6122c182611e4f565b9050602081019050919050565b82818337600083830152505050565b60006122f06122eb8461229d565b612282565b90508281526020810184848401111561230c5761230b61221d565b5b6123178482856122ce565b509392505050565b600082601f83011261233457612333612218565b5b81356123448482602086016122dd565b91505092915050565b6000806000806080858703121561236757612366611d3b565b5b600061237587828801611f91565b945050602061238687828801611f91565b935050604061239787828801611edc565b925050606085013567ffffffffffffffff8111156123b8576123b7611d40565b5b6123c48782880161231f565b91505092959194509250565b600067ffffffffffffffff8211156123eb576123ea612222565b5b6123f482611e4f565b9050602081019050919050565b600061241461240f846123d0565b612282565b9050828152602081018484840111156124305761242f61221d565b5b61243b8482856122ce565b509392505050565b600082601f83011261245857612457612218565b5b8135612468848260208601612401565b91505092915050565b60006020828403121561248757612486611d3b565b5b600082013567ffffffffffffffff8111156124a5576124a4611d40565b5b6124b184828501612443565b91505092915050565b600080604083850312156124d1576124d0611d3b565b5b60006124df85828601611f91565b92505060206124f085828601611f91565b9150509250929050565b7f4e487b7100000000000000000000000000000000000000000000000000000000600052602260045260246000fd5b6000600282049050600182168061254157607f821691505b602082108103612554576125536124fa565b5b50919050565b7f4552433732313a20617070726f76656420717565727920666f72206e6f6e657860008201527f697374656e7420746f6b656e0000000000000000000000000000000000000000602082015250565b60006125b6602c83611e0b565b91506125c18261255a565b604082019050919050565b600060208201905081810360008301526125e5816125a9565b9050919050565b7f4552433732313a20617070726f76616c20746f2063757272656e74206f776e6560008201527f7200000000000000000000000000000000000000000000000000000000000000602082015250565b6000612648602183611e0b565b9150612653826125ec565b604082019050919050565b600060208201905081810360008301526126778161263b565b9050919050565b7f4552433732313a20617070726f76652063616c6c6572206973206e6f74206f7760008201527f6e6572206e6f7220617070726f76656420666f7220616c6c0000000000000000602082015250565b60006126da603883611e0b565b91506126e58261267e565b604082019050919050565b60006020820190508181036000830152612709816126cd565b9050919050565b7f4552433732313a207472616e736665722063616c6c6572206973206e6f74206f60008201527f776e6572206e6f7220617070726f766564000000000000000000000000000000602082015250565b600061276c603183611e0b565b915061277782612710565b604082019050919050565b6000602082019050818103600083015261279b8161275f565b9050919050565b7f4552433732313a206f776e657220717565727920666f72206e6f6e657869737460008201527f656e7420746f6b656e0000000000000000000000000000000000000000000000602082015250565b60006127fe602983611e0b565b9150612809826127a2565b604082019050919050565b6000602082019050818103600083015261282d816127f1565b9050919050565b7f4552433732313a2062616c616e636520717565727920666f7220746865207a6560008201527f726f206164647265737300000000000000000000000000000000000000000000602082015250565b6000612890602a83611e0b565b915061289b82612834565b604082019050919050565b600060208201905081810360008301526128bf81612883565b9050919050565b7f45524337323155524953746f726167653a2055524920717565727920666f722060008201527f6e6f6e6578697374656e7420746f6b656e000000000000000000000000000000602082015250565b6000612922603183611e0b565b915061292d826128c6565b604082019050919050565b6000602082019050818103600083015261295181612915565b9050919050565b600081905092915050565b600061296e82611e00565b6129788185612958565b9350612988818560208601611e1c565b80840191505092915050565b60006129a08285612963565b91506129ac8284612963565b91508190509392505050565b7f5061792076616c7565206d757374206265200000000000000000000000000000600082015250565b60006129ee601283612958565b91506129f9826129b8565b601282019050919050565b7f2e20526563656976656420000000000000000000000000000000000000000000600082015250565b6000612a3a600b83612958565b9150612a4582612a04565b600b82019050919050565b6000612a5b826129e1565b9150612a678285612963565b9150612a7282612a2d565b9150612a7e8284612963565b91508190509392505050565b7f4e6f206d6f7265206e657720746f6b656e730000000000000000000000000000600082015250565b6000612ac0601283611e0b565b9150612acb82612a8a565b602082019050919050565b60006020820190508181036000830152612aef81612ab3565b9050919050565b7f4d617820616d6f756e7420746f6b656e73206973200000000000000000000000600082015250565b6000612b2c601583612958565b9150612b3782612af6565b601582019050919050565b6000612b4d82612b1f565b9150612b598284612963565b915081905092915050565b7f4e487b7100000000000000000000000000000000000000000000000000000000600052601160045260246000fd5b600063ffffffff82169050919050565b6000612bae82612b93565b915060008203612bc157612bc0612b64565b5b600182039050919050565b7f4552433732313a206f70657261746f7220717565727920666f72206e6f6e657860008201527f697374656e7420746f6b656e0000000000000000000000000000000000000000602082015250565b6000612c28602c83611e0b565b9150612c3382612bcc565b604082019050919050565b60006020820190508181036000830152612c5781612c1b565b9050919050565b7f4552433732313a207472616e736665722066726f6d20696e636f72726563742060008201527f6f776e6572000000000000000000000000000000000000000000000000000000602082015250565b6000612cba602583611e0b565b9150612cc582612c5e565b604082019050919050565b60006020820190508181036000830152612ce981612cad565b9050919050565b7f4552433732313a207472616e7366657220746f20746865207a65726f2061646460008201527f7265737300000000000000000000000000000000000000000000000000000000602082015250565b6000612d4c602483611e0b565b9150612d5782612cf0565b604082019050919050565b60006020820190508181036000830152612d7b81612d3f565b9050919050565b6000612d8d82611ebb565b9150612d9883611ebb565b925082821015612dab57612daa612b64565b5b828203905092915050565b6000612dc182611ebb565b9150612dcc83611ebb565b9250827fffffffffffffffffffffffffffffffffffffffffffffffffffffffffffffffff03821115612e0157612e00612b64565b5b828201905092915050565b7f4552433732313a20617070726f766520746f2063616c6c657200000000000000600082015250565b6000612e42601983611e0b565b9150612e4d82612e0c565b602082019050919050565b60006020820190508181036000830152612e7181612e35565b9050919050565b7f4552433732313a207472616e7366657220746f206e6f6e20455243373231526560008201527f63656976657220696d706c656d656e7465720000000000000000000000000000602082015250565b6000612ed4603283611e0b565b9150612edf82612e78565b604082019050919050565b60006020820190508181036000830152612f0381612ec7565b9050919050565b7f4552433732314d657461646174613a2055524920717565727920666f72206e6f60008201527f6e6578697374656e7420746f6b656e0000000000000000000000000000000000602082015250565b6000612f66602f83611e0b565b9150612f7182612f0a565b604082019050919050565b60006020820190508181036000830152612f9581612f59565b9050919050565b6000612fa782611ebb565b91507fffffffffffffffffffffffffffffffffffffffffffffffffffffffffffffffff8203612fd957612fd8612b64565b5b600182019050919050565b7f4e487b7100000000000000000000000000000000000000000000000000000000600052601260045260246000fd5b600061301e82611ebb565b915061302983611ebb565b92508261303957613038612fe4565b5b828204905092915050565b600061304f82611ebb565b915061305a83611ebb565b92508261306a57613069612fe4565b5b828206905092915050565b7f4e487b7100000000000000000000000000000000000000000000000000000000600052603260045260246000fd5b7f4552433732313a206d696e7420746f20746865207a65726f2061646472657373600082015250565b60006130da602083611e0b565b91506130e5826130a4565b602082019050919050565b60006020820190508181036000830152613109816130cd565b9050919050565b7f4552433732313a20746f6b656e20616c7265616479206d696e74656400000000600082015250565b6000613146601c83611e0b565b915061315182613110565b602082019050919050565b6000602082019050818103600083015261317581613139565b9050919050565b7f45524337323155524953746f726167653a2055524920736574206f66206e6f6e60008201527f6578697374656e7420746f6b656e000000000000000000000000000000000000602082015250565b60006131d8602e83611e0b565b91506131e38261317c565b604082019050919050565b60006020820190508181036000830152613207816131cb565b9050919050565b600081519050919050565b600082825260208201905092915050565b60006132358261320e565b61323f8185613219565b935061324f818560208601611e1c565b61325881611e4f565b840191505092915050565b60006080820190506132786000830187611f50565b6132856020830186611f50565b6132926040830185612182565b81810360608301526132a4818461322a565b905095945050505050565b6000815190506132be81611d71565b92915050565b6000602082840312156132da576132d9611d3b565b5b60006132e8848285016132af565b9150509291505056fea2646970667358221220981c9ba2ddcd9ceab44f4a971d988a1d344905f4905979aa7d39f3a280a13ee864736f6c634300080d0033",
  "immutableReferences": {},
  "source": "//SPDX-License-Identifier: Unlicense\npragma solidity ^0.8.13;\n\nimport \"hardhat/console.sol\";\nimport \"@openzeppelin/contracts/token/ERC721/ERC721.sol\";\nimport \"@openzeppelin/contracts/token/ERC721/extensions/ERC721URIStorage.sol\";\nimport \"@openzeppelin/contracts/utils/Counters.sol\";\nimport \"@openzeppelin/contracts/utils/Strings.sol\";\n\ncontract NFT is ERC721URIStorage  {\n    using Counters for Counters.Counter;\n    Counters.Counter private _tokenIds;\n    address payable public beneficiary;\n\n    uint32 countTokens = 1000000;\n    mapping(address => uint256[]) tokens;\n\n    constructor(address payable _beneficiary) ERC721(\"MyToken\", \"MTK\") {\n        beneficiary = _beneficiary;\n    }\n\n    function mint(string memory _value) external payable {\n        uint256 cost = 0.001 ether;\n        require(msg.value == cost, string(abi.encodePacked(\"Pay value must be \", Strings.toString(cost), \". Received \", Strings.toString(msg.value))));\n        require(countTokens > 0, \"No more new tokens\");\n        uint8 maxTokens = 100;\n        require(balanceOf(msg.sender) < maxTokens, string(abi.encodePacked(\"Max amount tokens is \", Strings.toString(maxTokens))));\n        beneficiary.transfer(cost);\n        countTokens--;\n         _tokenIds.increment();\n        uint256 newToken = _tokenIds.current();\n        _mint(msg.sender, newToken);\n        tokens[msg.sender].push(newToken);\n        _setTokenURI(newToken, _value);\n    }\n\n    function getUserTokens(address _owner) public view returns (uint256[] memory) {\n        return tokens[_owner];\n    }\n\n     function getCountTokens() public view returns (uint256) {\n        return countTokens;\n    }\n}\n",
  "sourcePath": "/home/kol/Projects/issue-ethers/contracts/NFT.sol",
  "compiler": {
    "name": "solc",
    "version": "0.8.13+commit.abaa5c0e.Emscripten.clang"
  },
  "schemaVersion": "3.4.7",
  "updatedAt": "2022-04-26T14:42:19.293Z",
  "networkType": "ethereum",
  "devdoc": {
    "kind": "dev",
    "methods": {
      "approve(address,uint256)": {
        "details": "See {IERC721-approve}."
      },
      "balanceOf(address)": {
        "details": "See {IERC721-balanceOf}."
      },
      "getApproved(uint256)": {
        "details": "See {IERC721-getApproved}."
      },
      "isApprovedForAll(address,address)": {
        "details": "See {IERC721-isApprovedForAll}."
      },
      "name()": {
        "details": "See {IERC721Metadata-name}."
      },
      "ownerOf(uint256)": {
        "details": "See {IERC721-ownerOf}."
      },
      "safeTransferFrom(address,address,uint256)": {
        "details": "See {IERC721-safeTransferFrom}."
      },
      "safeTransferFrom(address,address,uint256,bytes)": {
        "details": "See {IERC721-safeTransferFrom}."
      },
      "setApprovalForAll(address,bool)": {
        "details": "See {IERC721-setApprovalForAll}."
      },
      "supportsInterface(bytes4)": {
        "details": "See {IERC165-supportsInterface}."
      },
      "symbol()": {
        "details": "See {IERC721Metadata-symbol}."
      },
      "tokenURI(uint256)": {
        "details": "See {IERC721Metadata-tokenURI}."
      },
      "transferFrom(address,address,uint256)": {
        "details": "See {IERC721-transferFrom}."
      }
    },
    "version": 1
  },
  "userdoc": {
    "kind": "user",
    "methods": {},
    "version": 1
  }
}